{
  "contractName": "Escrow",
  "abi": [
    {
      "inputs": [
        {
          "internalType": "address",
          "name": "_payer",
          "type": "address"
        },
        {
          "internalType": "address payable",
          "name": "_payee",
          "type": "address"
        },
        {
          "internalType": "uint256",
          "name": "_amount",
          "type": "uint256"
        }
      ],
      "stateMutability": "payable",
      "type": "constructor",
      "payable": true
    },
    {
      "inputs": [],
      "name": "amount",
      "outputs": [
        {
          "internalType": "uint256",
          "name": "",
          "type": "uint256"
        }
      ],
      "stateMutability": "view",
      "type": "function",
      "constant": true
    },
    {
      "inputs": [],
      "name": "lawyer",
      "outputs": [
        {
          "internalType": "address",
          "name": "",
          "type": "address"
        }
      ],
      "stateMutability": "view",
      "type": "function",
      "constant": true
    },
    {
      "inputs": [],
      "name": "payee",
      "outputs": [
        {
          "internalType": "address payable",
          "name": "",
          "type": "address"
        }
      ],
      "stateMutability": "view",
      "type": "function",
      "constant": true
    },
    {
      "inputs": [],
      "name": "payer",
      "outputs": [
        {
          "internalType": "address",
          "name": "",
          "type": "address"
        }
      ],
      "stateMutability": "view",
      "type": "function",
      "constant": true
    },
    {
      "inputs": [],
      "name": "deposit",
      "outputs": [],
      "stateMutability": "payable",
      "type": "function",
      "payable": true
    },
    {
      "inputs": [],
      "name": "release",
      "outputs": [],
      "stateMutability": "nonpayable",
      "type": "function"
    },
    {
      "inputs": [],
      "name": "getBalance",
      "outputs": [
        {
          "internalType": "uint256",
          "name": "",
          "type": "uint256"
        }
      ],
      "stateMutability": "view",
      "type": "function",
      "constant": true
    }
  ],
  "bytecode": "0x608060405260405161093f38038061093f833981810160405281019061002591906101cd565b336000806101000a81548173ffffffffffffffffffffffffffffffffffffffff021916908373ffffffffffffffffffffffffffffffffffffffff16021790555082600160006101000a81548173ffffffffffffffffffffffffffffffffffffffff021916908373ffffffffffffffffffffffffffffffffffffffff16021790555081600260006101000a81548173ffffffffffffffffffffffffffffffffffffffff021916908373ffffffffffffffffffffffffffffffffffffffff16021790555080600381905550505050610220565b600080fd5b600073ffffffffffffffffffffffffffffffffffffffff82169050919050565b6000610126826100fb565b9050919050565b6101368161011b565b811461014157600080fd5b50565b6000815190506101538161012d565b92915050565b6000610164826100fb565b9050919050565b61017481610159565b811461017f57600080fd5b50565b6000815190506101918161016b565b92915050565b6000819050919050565b6101aa81610197565b81146101b557600080fd5b50565b6000815190506101c7816101a1565b92915050565b6000806000606084860312156101e6576101e56100f6565b5b60006101f486828701610144565b935050602061020586828701610182565b9250506040610216868287016101b8565b9150509250925092565b6107108061022f6000396000f3fe6080604052600436106100705760003560e01c806386d1a69f1161004e57806386d1a69f146100f6578063aa8c217c1461010d578063ae90b21314610138578063d0e30db01461016357610070565b806312065fe014610075578063123119cd146100a05780633bfb6e31146100cb575b600080fd5b34801561008157600080fd5b5061008a61016d565b604051610097919061041a565b60405180910390f35b3480156100ac57600080fd5b506100b5610175565b6040516100c29190610476565b60405180910390f35b3480156100d757600080fd5b506100e061019b565b6040516100ed9190610476565b60405180910390f35b34801561010257600080fd5b5061010b6101bf565b005b34801561011957600080fd5b506101226102fe565b60405161012f919061041a565b60405180910390f35b34801561014457600080fd5b5061014d610304565b60405161015a91906104b2565b60405180910390f35b61016b61032a565b005b600047905090565b600160009054906101000a900473ffffffffffffffffffffffffffffffffffffffff1681565b60008054906101000a900473ffffffffffffffffffffffffffffffffffffffff1681565b60008054906101000a900473ffffffffffffffffffffffffffffffffffffffff1673ffffffffffffffffffffffffffffffffffffffff163373ffffffffffffffffffffffffffffffffffffffff161461024d576040517f08c379a00000000000000000000000000000000000000000000000000000000081526004016102449061052a565b60405180910390fd5b6003544714610291576040517f08c379a0000000000000000000000000000000000000000000000000000000008152600401610288906105bc565b60405180910390fd5b600260009054906101000a900473ffffffffffffffffffffffffffffffffffffffff1673ffffffffffffffffffffffffffffffffffffffff166108fc6003549081150290604051600060405180830381858888f193505050501580156102fb573d6000803e3d6000fd5b50565b60035481565b600260009054906101000a900473ffffffffffffffffffffffffffffffffffffffff1681565b600160009054906101000a900473ffffffffffffffffffffffffffffffffffffffff1673ffffffffffffffffffffffffffffffffffffffff163373ffffffffffffffffffffffffffffffffffffffff16146103ba576040517f08c379a00000000000000000000000000000000000000000000000000000000081526004016103b190610628565b60405180910390fd5b6003544711156103ff576040517f08c379a00000000000000000000000000000000000000000000000000000000081526004016103f6906106ba565b60405180910390fd5b565b6000819050919050565b61041481610401565b82525050565b600060208201905061042f600083018461040b565b92915050565b600073ffffffffffffffffffffffffffffffffffffffff82169050919050565b600061046082610435565b9050919050565b61047081610455565b82525050565b600060208201905061048b6000830184610467565b92915050565b600061049c82610435565b9050919050565b6104ac81610491565b82525050565b60006020820190506104c760008301846104a3565b92915050565b600082825260208201905092915050565b7f6f6e6c79206c61777965722063616e2072656c656173652066756e6473000000600082015250565b6000610514601d836104cd565b915061051f826104de565b602082019050919050565b6000602082019050818103600083015261054381610507565b9050919050565b7f63616e6e6f742072656c656173652066756e6473206265666f7265207468652060008201527f66756c6c20616d6f756e74206973207061696400000000000000000000000000602082015250565b60006105a66033836104cd565b91506105b18261054a565b604082019050919050565b600060208201905081810360008301526105d581610599565b9050919050565b7f73656e646572206d757374206265207468652070617965720000000000000000600082015250565b60006106126018836104cd565b915061061d826105dc565b602082019050919050565b6000602082019050818103600083015261064181610605565b9050919050565b7f66756e6473206d757374206e6f7420657863656564207468652061677265656460008201527f20616d6f756e7400000000000000000000000000000000000000000000000000602082015250565b60006106a46027836104cd565b91506106af82610648565b604082019050919050565b600060208201905081810360008301526106d381610697565b905091905056fea264697066735822122084ad107d9fc372df58122bde948b6d9ab9f9390bdeb241b065edea2785230c6964736f6c634300080c0033",
  "immutableReferences": {},
  "source": "// SPDX-License-Identifier: MIT\npragma solidity ^0.8.12;\n\ncontract Escrow {\n  address public lawyer;\n  address public payer;\n  address payable public payee;\n  uint public amount;\n\n  constructor(address _payer, address payable _payee, uint _amount) payable {\n    lawyer = msg.sender;\n    payer = _payer;\n    payee = _payee;\n    amount = _amount;\n  }\n\n  function deposit() public payable {\n    require(msg.sender == payer, \"sender must be the payer\");\n    require(address(this).balance <= amount, \"funds must not exceed the agreed amount\");\n  }\n\n  function release() public {\n    require(msg.sender == lawyer, \"only lawyer can release funds\");\n    require(address(this).balance == amount, \"cannot release funds before the full amount is paid\");\n    payee.transfer(amount);\n  }\n\n  function getBalance() public view returns(uint) {\n    return address(this).balance;\n  }\n}\n",
  "sourcePath": "/home/jsan/projects/simple-eth-escrow/contracts/Escrow.sol",
  "compiler": {
    "name": "solc",
    "version": "0.8.12+commit.f00d7308.Emscripten.clang"
  },
  "schemaVersion": "3.4.6",
  "updatedAt": "2022-03-28T07:05:56.073Z",
  "networkType": "ethereum",
  "devdoc": {
    "kind": "dev",
    "methods": {},
    "version": 1
  },
  "userdoc": {
    "kind": "user",
    "methods": {},
    "version": 1
  }
}